{
  "contractName": "EventContract",
  "abi": [
    {
      "anonymous": false,
      "inputs": [
        {
          "indexed": true,
          "internalType": "address",
          "name": "from",
          "type": "address"
        },
        {
          "components": [
            {
              "internalType": "address",
              "name": "_to",
              "type": "address"
            },
            {
              "internalType": "uint256",
              "name": "_value",
              "type": "uint256"
            },
            {
              "internalType": "bool",
              "name": "_successful",
              "type": "bool"
            }
          ],
          "indexed": false,
          "internalType": "struct EventContract.Transaction",
          "name": "_transaction",
          "type": "tuple"
        },
        {
          "indexed": true,
          "internalType": "bool",
          "name": "_wasDeleted",
          "type": "bool"
        }
      ],
      "name": "TransactionNotification",
      "type": "event"
    },
    {
      "inputs": [
        {
          "internalType": "address",
          "name": "",
          "type": "address"
        }
      ],
      "name": "map",
      "outputs": [
        {
          "internalType": "address",
          "name": "_to",
          "type": "address"
        },
        {
          "internalType": "uint256",
          "name": "_value",
          "type": "uint256"
        },
        {
          "internalType": "bool",
          "name": "_successful",
          "type": "bool"
        }
      ],
      "stateMutability": "view",
      "type": "function",
      "constant": true
    },
    {
      "inputs": [],
      "name": "number",
      "outputs": [
        {
          "internalType": "uint256",
          "name": "",
          "type": "uint256"
        }
      ],
      "stateMutability": "view",
      "type": "function",
      "constant": true
    },
    {
      "inputs": [
        {
          "internalType": "address",
          "name": "_to",
          "type": "address"
        }
      ],
      "name": "sendTransaction",
      "outputs": [],
      "stateMutability": "payable",
      "type": "function",
      "payable": true
    },
    {
      "inputs": [],
      "name": "clearHistory",
      "outputs": [],
      "stateMutability": "nonpayable",
      "type": "function"
    }
  ],
  "bytecode": "0x6080604052600160005534801561001557600080fd5b50610655806100256000396000f3fe60806040526004361061003f5760003560e01c80632bd123fe1461004457806356b176e1146100605780638381f58a14610077578063b721ef6e146100a2575b600080fd5b61005e600480360381019061005991906104d3565b6100e1565b005b34801561006c57600080fd5b50610075610270565b005b34801561008357600080fd5b5061008c610413565b6040516100999190610519565b60405180910390f35b3480156100ae57600080fd5b506100c960048036038101906100c491906104d3565b610419565b6040516100d89392919061055e565b60405180910390f35b60008190508073ffffffffffffffffffffffffffffffffffffffff166108fc349081150290604051600060405180830381858888f1935050505015801561012c573d6000803e3d6000fd5b50600060405180606001604052808473ffffffffffffffffffffffffffffffffffffffff16815260200134815260200160011515815250905080600160003373ffffffffffffffffffffffffffffffffffffffff1673ffffffffffffffffffffffffffffffffffffffff16815260200190815260200160002060008201518160000160006101000a81548173ffffffffffffffffffffffffffffffffffffffff021916908373ffffffffffffffffffffffffffffffffffffffff1602179055506020820151816001015560408201518160020160006101000a81548160ff021916908315150217905550905050600015153373ffffffffffffffffffffffffffffffffffffffff167f94a58b32974921dddf95a24bf6d69b564a8640e6b808788220bcd97f6b284bc0836040516102639190610604565b60405180910390a3505050565b6000600160003373ffffffffffffffffffffffffffffffffffffffff1673ffffffffffffffffffffffffffffffffffffffff1681526020019081526020016000206040518060600160405290816000820160009054906101000a900473ffffffffffffffffffffffffffffffffffffffff1673ffffffffffffffffffffffffffffffffffffffff1673ffffffffffffffffffffffffffffffffffffffff168152602001600182015481526020016002820160009054906101000a900460ff1615151515815250509050600160003373ffffffffffffffffffffffffffffffffffffffff1673ffffffffffffffffffffffffffffffffffffffff168152602001908152602001600020600080820160006101000a81549073ffffffffffffffffffffffffffffffffffffffff021916905560018201600090556002820160006101000a81549060ff02191690555050600115153373ffffffffffffffffffffffffffffffffffffffff167f94a58b32974921dddf95a24bf6d69b564a8640e6b808788220bcd97f6b284bc0836040516104089190610604565b60405180910390a350565b60005481565b60016020528060005260406000206000915090508060000160009054906101000a900473ffffffffffffffffffffffffffffffffffffffff16908060010154908060020160009054906101000a900460ff16905083565b600080fd5b600073ffffffffffffffffffffffffffffffffffffffff82169050919050565b60006104a082610475565b9050919050565b6104b081610495565b81146104bb57600080fd5b50565b6000813590506104cd816104a7565b92915050565b6000602082840312156104e9576104e8610470565b5b60006104f7848285016104be565b91505092915050565b6000819050919050565b61051381610500565b82525050565b600060208201905061052e600083018461050a565b92915050565b61053d81610495565b82525050565b60008115159050919050565b61055881610543565b82525050565b60006060820190506105736000830186610534565b610580602083018561050a565b61058d604083018461054f565b949350505050565b61059e81610495565b82525050565b6105ad81610500565b82525050565b6105bc81610543565b82525050565b6060820160008201516105d86000850182610595565b5060208201516105eb60208501826105a4565b5060408201516105fe60408501826105b3565b50505050565b600060608201905061061960008301846105c2565b9291505056fea264697066735822122003c521a861e70409521ae8569320854761c306ee65457bc3b234704b02f980e364736f6c63430008120033",
  "immutableReferences": {},
  "source": "// SPDX-License-Identifier: MIT\npragma solidity >=0.5.16;\n\ncontract EventContract {\n\n  uint public number = 1;\n\n  struct Transaction {\n    address _to;\n    uint _value;\n    bool _successful;\n  }\n\n  event TransactionNotification(address indexed from, Transaction _transaction, bool indexed _wasDeleted);\n\n  mapping(address => Transaction) public map;\n\n  function sendTransaction(address _to) public payable {\n\n    address payable to = payable(_to);\n    to.transfer(msg.value);\n\n    Transaction memory _transaction = Transaction(_to, msg.value, true);\n\n    map[msg.sender] = _transaction;\n    emit TransactionNotification(msg.sender, _transaction, false);\n  }\n\n  function clearHistory() public {\n\n    Transaction memory _transaction = map[msg.sender];\n    delete map[msg.sender];\n    emit TransactionNotification(msg.sender, _transaction, true);\n  }\n\n}",
  "sourcePath": "C:\\Users\\ndumk\\OneDrive\\ \\Ethereum\\home_work\\3   \\event-contract\\contracts\\EventContract.sol",
  "compiler": {
    "name": "solc",
    "version": "0.8.18+commit.87f61d96.Emscripten.clang"
  },
  "schemaVersion": "3.4.14",
  "updatedAt": "2023-06-26T15:54:59.192Z",
  "networkType": "ethereum",
  "devdoc": {
    "kind": "dev",
    "methods": {},
    "version": 1
  },
  "userdoc": {
    "kind": "user",
    "methods": {},
    "version": 1
  }
}