{
  "contractName": "RPS",
  "abi": [
    {
      "anonymous": false,
      "inputs": [
        {
          "indexed": false,
          "internalType": "address",
          "name": "player",
          "type": "address"
        },
        {
          "indexed": false,
          "internalType": "string",
          "name": "choice",
          "type": "string"
        }
      ],
      "name": "RevealAnwer",
      "type": "event"
    },
    {
      "inputs": [
        {
          "internalType": "address",
          "name": "",
          "type": "address"
        }
      ],
      "name": "participantsData",
      "outputs": [
        {
          "internalType": "bytes32",
          "name": "commit",
          "type": "bytes32"
        },
        {
          "internalType": "bool",
          "name": "isParticipant",
          "type": "bool"
        }
      ],
      "stateMutability": "view",
      "type": "function",
      "constant": true
    },
    {
      "inputs": [
        {
          "internalType": "uint256",
          "name": "",
          "type": "uint256"
        }
      ],
      "name": "variants",
      "outputs": [
        {
          "internalType": "string",
          "name": "",
          "type": "string"
        }
      ],
      "stateMutability": "view",
      "type": "function",
      "constant": true
    },
    {
      "inputs": [],
      "name": "registration",
      "outputs": [],
      "stateMutability": "nonpayable",
      "type": "function"
    },
    {
      "inputs": [
        {
          "internalType": "bytes32",
          "name": "_hashedChoice",
          "type": "bytes32"
        }
      ],
      "name": "choose",
      "outputs": [],
      "stateMutability": "nonpayable",
      "type": "function"
    },
    {
      "inputs": [
        {
          "internalType": "uint256",
          "name": "_choice",
          "type": "uint256"
        },
        {
          "internalType": "bytes32",
          "name": "_secret",
          "type": "bytes32"
        }
      ],
      "name": "revealChoice",
      "outputs": [],
      "stateMutability": "nonpayable",
      "type": "function"
    }
  ],
  "bytecode": "0x608060405260405180606001604052806040518060400160405280600481526020017f726f636b0000000000000000000000000000000000000000000000000000000081525081526020016040518060400160405280600581526020017f706170657200000000000000000000000000000000000000000000000000000081525081526020016040518060400160405280600881526020017f73636973736f72730000000000000000000000000000000000000000000000008152508152506000906003620000d0929190620000e5565b50348015620000de57600080fd5b5062000533565b82805482825590600052602060002090810192821562000132579160200282015b82811115620001315782518290816200012091906200044c565b509160200191906001019062000106565b5b50905062000141919062000145565b5090565b5b808211156200016957600081816200015f91906200016d565b5060010162000146565b5090565b5080546200017b906200023b565b6000825580601f106200018f5750620001b0565b601f016020900490600052602060002090810190620001af9190620001b3565b5b50565b5b80821115620001ce576000816000905550600101620001b4565b5090565b600081519050919050565b7f4e487b7100000000000000000000000000000000000000000000000000000000600052604160045260246000fd5b7f4e487b7100000000000000000000000000000000000000000000000000000000600052602260045260246000fd5b600060028204905060018216806200025457607f821691505b6020821081036200026a57620002696200020c565b5b50919050565b60008190508160005260206000209050919050565b60006020601f8301049050919050565b600082821b905092915050565b600060088302620002d47fffffffffffffffffffffffffffffffffffffffffffffffffffffffffffffffff8262000295565b620002e0868362000295565b95508019841693508086168417925050509392505050565b6000819050919050565b6000819050919050565b60006200032d620003276200032184620002f8565b62000302565b620002f8565b9050919050565b6000819050919050565b62000349836200030c565b62000361620003588262000334565b848454620002a2565b825550505050565b600090565b6200037862000369565b620003858184846200033e565b505050565b5b81811015620003ad57620003a16000826200036e565b6001810190506200038b565b5050565b601f821115620003fc57620003c68162000270565b620003d18462000285565b81016020851015620003e1578190505b620003f9620003f08562000285565b8301826200038a565b50505b505050565b600082821c905092915050565b6000620004216000198460080262000401565b1980831691505092915050565b60006200043c83836200040e565b9150826002028217905092915050565b6200045782620001d2565b67ffffffffffffffff811115620004735762000472620001dd565b5b6200047f82546200023b565b6200048c828285620003b1565b600060209050601f831160018114620004c45760008415620004af578287015190505b620004bb85826200042e565b8655506200052b565b601f198416620004d48662000270565b60005b82811015620004fe57848901518255600182019150602085019450602081019050620004d7565b868310156200051e57848901516200051a601f8916826200040e565b8355505b6001600288020188555050505b505050505050565b610b1780620005436000396000f3fe608060405234801561001057600080fd5b50600436106100575760003560e01c8063443bd1d01461005c5780635def1113146100665780637460c747146100965780638c10bb96146100b2578063d88a97af146100ce575b600080fd5b6100646100ff565b005b610080600480360381019061007b9190610653565b6101fc565b60405161008d9190610710565b60405180910390f35b6100b060048036038101906100ab9190610768565b6102a8565b005b6100cc60048036038101906100c79190610795565b6104f6565b005b6100e860048036038101906100e39190610833565b6105e7565b6040516100f692919061088a565b60405180910390f35b600280805490500361011057600080fd5b60405180604001604052806000801b815260200160011515815250600160003373ffffffffffffffffffffffffffffffffffffffff1673ffffffffffffffffffffffffffffffffffffffff1681526020019081526020016000206000820151816000015560208201518160010160006101000a81548160ff0219169083151502179055509050506002339080600181540180825580915050600190039060005260206000200160009091909190916101000a81548173ffffffffffffffffffffffffffffffffffffffff021916908373ffffffffffffffffffffffffffffffffffffffff160217905550565b6000818154811061020c57600080fd5b906000526020600020016000915090508054610227906108e2565b80601f0160208091040260200160405190810160405280929190818152602001828054610253906108e2565b80156102a05780601f10610275576101008083540402835291602001916102a0565b820191906000526020600020905b81548152906001019060200180831161028357829003601f168201915b505050505081565b600360009054906101000a900460ff16156102c257600080fd5b60011515600160003373ffffffffffffffffffffffffffffffffffffffff1673ffffffffffffffffffffffffffffffffffffffff16815260200190815260200160002060010160009054906101000a900460ff1615151461032257600080fd5b6000801b600160003373ffffffffffffffffffffffffffffffffffffffff1673ffffffffffffffffffffffffffffffffffffffff168152602001908152602001600020600001541461037357600080fd5b80600160003373ffffffffffffffffffffffffffffffffffffffff1673ffffffffffffffffffffffffffffffffffffffff168152602001908152602001600020600001819055506000801b6001600060026000815481106103d7576103d6610913565b5b9060005260206000200160009054906101000a900473ffffffffffffffffffffffffffffffffffffffff1673ffffffffffffffffffffffffffffffffffffffff1673ffffffffffffffffffffffffffffffffffffffff16815260200190815260200160002060000154141580156104d257506000801b60016000600260018154811061046657610465610913565b5b9060005260206000200160009054906101000a900473ffffffffffffffffffffffffffffffffffffffff1673ffffffffffffffffffffffffffffffffffffffff1673ffffffffffffffffffffffffffffffffffffffff1681526020019081526020016000206000015414155b156104f3576001600360006101000a81548160ff0219169083151502179055505b50565b600360009054906101000a900460ff1661050f57600080fd5b6000828233604051602001610526939291906109cc565b604051602081830303815290604052805190602001209050600160003373ffffffffffffffffffffffffffffffffffffffff1673ffffffffffffffffffffffffffffffffffffffff16815260200190815260200160002060000154811461058c57600080fd5b7f29e24bf7e1b8ca59415306745ddff74138b6ea2f5c3d0e25a3086cde7bbed13733600085815481106105c2576105c1610913565b5b906000526020600020016040516105da929190610ab1565b60405180910390a1505050565b60016020528060005260406000206000915090508060000154908060010160009054906101000a900460ff16905082565b600080fd5b6000819050919050565b6106308161061d565b811461063b57600080fd5b50565b60008135905061064d81610627565b92915050565b60006020828403121561066957610668610618565b5b60006106778482850161063e565b91505092915050565b600081519050919050565b600082825260208201905092915050565b60005b838110156106ba57808201518184015260208101905061069f565b60008484015250505050565b6000601f19601f8301169050919050565b60006106e282610680565b6106ec818561068b565b93506106fc81856020860161069c565b610705816106c6565b840191505092915050565b6000602082019050818103600083015261072a81846106d7565b905092915050565b6000819050919050565b61074581610732565b811461075057600080fd5b50565b6000813590506107628161073c565b92915050565b60006020828403121561077e5761077d610618565b5b600061078c84828501610753565b91505092915050565b600080604083850312156107ac576107ab610618565b5b60006107ba8582860161063e565b92505060206107cb85828601610753565b9150509250929050565b600073ffffffffffffffffffffffffffffffffffffffff82169050919050565b6000610800826107d5565b9050919050565b610810816107f5565b811461081b57600080fd5b50565b60008135905061082d81610807565b92915050565b60006020828403121561084957610848610618565b5b60006108578482850161081e565b91505092915050565b61086981610732565b82525050565b60008115159050919050565b6108848161086f565b82525050565b600060408201905061089f6000830185610860565b6108ac602083018461087b565b9392505050565b7f4e487b7100000000000000000000000000000000000000000000000000000000600052602260045260246000fd5b600060028204905060018216806108fa57607f821691505b60208210810361090d5761090c6108b3565b5b50919050565b7f4e487b7100000000000000000000000000000000000000000000000000000000600052603260045260246000fd5b6000819050919050565b61095d6109588261061d565b610942565b82525050565b6000819050919050565b61097e61097982610732565b610963565b82525050565b60008160601b9050919050565b600061099c82610984565b9050919050565b60006109ae82610991565b9050919050565b6109c66109c1826107f5565b6109a3565b82525050565b60006109d8828661094c565b6020820191506109e8828561096d565b6020820191506109f882846109b5565b601482019150819050949350505050565b610a12816107f5565b82525050565b60008190508160005260206000209050919050565b60008154610a3a816108e2565b610a44818661068b565b94506001821660008114610a5f5760018114610a7557610aa8565b60ff198316865281151560200286019350610aa8565b610a7e85610a18565b60005b83811015610aa057815481890152600182019150602081019050610a81565b808801955050505b50505092915050565b6000604082019050610ac66000830185610a09565b8181036020830152610ad88184610a2d565b9050939250505056fea26469706673582212207e3ef3c2671c56ebc8273db7988d743f3ba69eeeb2dd6d42bb39f808eaa1acdd64736f6c63430008120033",
  "immutableReferences": {},
  "source": "// SPDX-License-Identifier: MIT\r\npragma solidity >=0.4.22 <0.9.0;\r\n\r\ncontract RPS{\r\n\r\n    event RevealAnwer (address player, string choice);\r\n\r\n    string[] public variants = [\r\n    \"rock\",\r\n    \"paper\",\r\n    \"scissors\"\r\n    ];\r\n\r\n    struct GameData{\r\n        bytes32 commit;\r\n        bool isParticipant;\r\n    }\r\n\r\n    mapping(address => GameData) public participantsData;\r\n    address[] participants;\r\n    bool votingStopped;\r\n\r\n    modifier registrationIsPossible (){\r\n        require(participants.length != 2);\r\n        _;\r\n    }\r\n\r\n    function registration() public registrationIsPossible() { //FUNC\r\n        participantsData[msg.sender] = GameData(0, true);\r\n        participants.push(msg.sender);\r\n    }\r\n\r\n    modifier choiceAvailable () {\r\n        require(!votingStopped);\r\n        require(participantsData[msg.sender].isParticipant == true);\r\n        require(participantsData[msg.sender].commit == bytes32(0));\r\n        _;\r\n    }\r\n\r\n    modifier stopVoting() {\r\n        _;\r\n        if(participantsData[participants[0]].commit != bytes32(0) && participantsData[participants[1]].commit != bytes32(0)){\r\n            votingStopped = true;\r\n        }\r\n    }\r\n\r\n    function choose(bytes32 _hashedChoice) external choiceAvailable() stopVoting(){ //FUNC\r\n        participantsData[msg.sender].commit = _hashedChoice;\r\n    }\r\n\r\n    function revealChoice(uint _choice, bytes32 _secret) external { //FUNC\r\n        require(votingStopped);\r\n\r\n        bytes32 commit = keccak256(abi.encodePacked(_choice, _secret, msg.sender));\r\n\r\n        require(commit == participantsData[msg.sender].commit);\r\n\r\n        emit RevealAnwer(msg.sender, variants[_choice]);\r\n    }\r\n\r\n}",
  "sourcePath": "C:\\Users\\ndumk\\OneDrive\\ \\Ethereum\\home_work\\4  --\\RPC\\contracts\\RPS.sol",
  "compiler": {
    "name": "solc",
    "version": "0.8.18+commit.87f61d96.Emscripten.clang"
  },
  "schemaVersion": "3.4.14",
  "updatedAt": "2023-06-27T20:09:11.292Z",
  "networkType": "ethereum",
  "devdoc": {
    "kind": "dev",
    "methods": {},
    "version": 1
  },
  "userdoc": {
    "kind": "user",
    "methods": {},
    "version": 1
  }
}