{
  "contractName": "RPS",
  "abi": [
    {
      "anonymous": false,
      "inputs": [
        {
          "indexed": false,
          "internalType": "address",
          "name": "player",
          "type": "address"
        },
        {
          "indexed": false,
          "internalType": "string",
          "name": "choice",
          "type": "string"
        }
      ],
      "name": "RevealAnwer",
      "type": "event"
    },
    {
      "inputs": [
        {
          "internalType": "address",
          "name": "",
          "type": "address"
        }
      ],
      "name": "participantsData",
      "outputs": [
        {
          "internalType": "bytes32",
          "name": "commit",
          "type": "bytes32"
        },
        {
          "internalType": "bool",
          "name": "isParticipant",
          "type": "bool"
        }
      ],
      "stateMutability": "view",
      "type": "function",
      "constant": true
    },
    {
      "inputs": [
        {
          "internalType": "uint256",
          "name": "",
          "type": "uint256"
        }
      ],
      "name": "variants",
      "outputs": [
        {
          "internalType": "string",
          "name": "",
          "type": "string"
        }
      ],
      "stateMutability": "view",
      "type": "function",
      "constant": true
    },
    {
      "inputs": [],
      "name": "registration",
      "outputs": [
        {
          "internalType": "bool",
          "name": "",
          "type": "bool"
        }
      ],
      "stateMutability": "nonpayable",
      "type": "function"
    },
    {
      "inputs": [
        {
          "internalType": "bytes32",
          "name": "_hashedChoice",
          "type": "bytes32"
        }
      ],
      "name": "choose",
      "outputs": [
        {
          "internalType": "bool",
          "name": "",
          "type": "bool"
        }
      ],
      "stateMutability": "nonpayable",
      "type": "function"
    },
    {
      "inputs": [
        {
          "internalType": "uint256",
          "name": "_choice",
          "type": "uint256"
        },
        {
          "internalType": "bytes32",
          "name": "_secret",
          "type": "bytes32"
        }
      ],
      "name": "revealChoice",
      "outputs": [
        {
          "internalType": "bool",
          "name": "",
          "type": "bool"
        }
      ],
      "stateMutability": "nonpayable",
      "type": "function"
    }
  ],
  "bytecode": "0x608060405260405180606001604052806040518060400160405280600481526020017f726f636b0000000000000000000000000000000000000000000000000000000081525081526020016040518060400160405280600581526020017f706170657200000000000000000000000000000000000000000000000000000081525081526020016040518060400160405280600881526020017f73636973736f72730000000000000000000000000000000000000000000000008152508152506000906003620000d0929190620000e5565b50348015620000de57600080fd5b5062000533565b82805482825590600052602060002090810192821562000132579160200282015b82811115620001315782518290816200012091906200044c565b509160200191906001019062000106565b5b50905062000141919062000145565b5090565b5b808211156200016957600081816200015f91906200016d565b5060010162000146565b5090565b5080546200017b906200023b565b6000825580601f106200018f5750620001b0565b601f016020900490600052602060002090810190620001af9190620001b3565b5b50565b5b80821115620001ce576000816000905550600101620001b4565b5090565b600081519050919050565b7f4e487b7100000000000000000000000000000000000000000000000000000000600052604160045260246000fd5b7f4e487b7100000000000000000000000000000000000000000000000000000000600052602260045260246000fd5b600060028204905060018216806200025457607f821691505b6020821081036200026a57620002696200020c565b5b50919050565b60008190508160005260206000209050919050565b60006020601f8301049050919050565b600082821b905092915050565b600060088302620002d47fffffffffffffffffffffffffffffffffffffffffffffffffffffffffffffffff8262000295565b620002e0868362000295565b95508019841693508086168417925050509392505050565b6000819050919050565b6000819050919050565b60006200032d620003276200032184620002f8565b62000302565b620002f8565b9050919050565b6000819050919050565b62000349836200030c565b62000361620003588262000334565b848454620002a2565b825550505050565b600090565b6200037862000369565b620003858184846200033e565b505050565b5b81811015620003ad57620003a16000826200036e565b6001810190506200038b565b5050565b601f821115620003fc57620003c68162000270565b620003d18462000285565b81016020851015620003e1578190505b620003f9620003f08562000285565b8301826200038a565b50505b505050565b600082821c905092915050565b6000620004216000198460080262000401565b1980831691505092915050565b60006200043c83836200040e565b9150826002028217905092915050565b6200045782620001d2565b67ffffffffffffffff811115620004735762000472620001dd565b5b6200047f82546200023b565b6200048c828285620003b1565b600060209050601f831160018114620004c45760008415620004af578287015190505b620004bb85826200042e565b8655506200052b565b601f198416620004d48662000270565b60005b82811015620004fe57848901518255600182019150602085019450602081019050620004d7565b868310156200051e57848901516200051a601f8916826200040e565b8355505b6001600288020188555050505b505050505050565b610b8f80620005436000396000f3fe608060405234801561001057600080fd5b50600436106100575760003560e01c8063443bd1d01461005c5780635def11131461007a5780637460c747146100aa5780638c10bb96146100da578063d88a97af1461010a575b600080fd5b61006461013b565b6040516100719190610690565b60405180910390f35b610094600480360381019061008f91906106e6565b61023f565b6040516100a191906107a3565b60405180910390f35b6100c460048036038101906100bf91906107fb565b6102eb565b6040516100d19190610690565b60405180910390f35b6100f460048036038101906100ef9190610828565b610541565b6040516101019190610690565b60405180910390f35b610124600480360381019061011f91906108c6565b610644565b604051610132929190610902565b60405180910390f35b6000600280805490500361014e57600080fd5b60405180604001604052806000801b815260200160011515815250600160003373ffffffffffffffffffffffffffffffffffffffff1673ffffffffffffffffffffffffffffffffffffffff1681526020019081526020016000206000820151816000015560208201518160010160006101000a81548160ff0219169083151502179055509050506002339080600181540180825580915050600190039060005260206000200160009091909190916101000a81548173ffffffffffffffffffffffffffffffffffffffff021916908373ffffffffffffffffffffffffffffffffffffffff1602179055506001905090565b6000818154811061024f57600080fd5b90600052602060002001600091509050805461026a9061095a565b80601f01602080910402602001604051908101604052809291908181526020018280546102969061095a565b80156102e35780601f106102b8576101008083540402835291602001916102e3565b820191906000526020600020905b8154815290600101906020018083116102c657829003601f168201915b505050505081565b6000600360009054906101000a900460ff161561030757600080fd5b60011515600160003373ffffffffffffffffffffffffffffffffffffffff1673ffffffffffffffffffffffffffffffffffffffff16815260200190815260200160002060010160009054906101000a900460ff1615151461036757600080fd5b6000801b600160003373ffffffffffffffffffffffffffffffffffffffff1673ffffffffffffffffffffffffffffffffffffffff16815260200190815260200160002060000154146103b857600080fd5b81600160003373ffffffffffffffffffffffffffffffffffffffff1673ffffffffffffffffffffffffffffffffffffffff16815260200190815260200160002060000181905550600190506000801b6001600060026000815481106104205761041f61098b565b5b9060005260206000200160009054906101000a900473ffffffffffffffffffffffffffffffffffffffff1673ffffffffffffffffffffffffffffffffffffffff1673ffffffffffffffffffffffffffffffffffffffff168152602001908152602001600020600001541415801561051b57506000801b6001600060026001815481106104af576104ae61098b565b5b9060005260206000200160009054906101000a900473ffffffffffffffffffffffffffffffffffffffff1673ffffffffffffffffffffffffffffffffffffffff1673ffffffffffffffffffffffffffffffffffffffff1681526020019081526020016000206000015414155b1561053c576001600360006101000a81548160ff0219169083151502179055505b919050565b6000600360009054906101000a900460ff16610560576000905061063e565b600083833360405160200161057793929190610a44565b604051602081830303815290604052805190602001209050600160003373ffffffffffffffffffffffffffffffffffffffff1673ffffffffffffffffffffffffffffffffffffffff168152602001908152602001600020600001548103610638577f29e24bf7e1b8ca59415306745ddff74138b6ea2f5c3d0e25a3086cde7bbed137336000868154811061060e5761060d61098b565b5b90600052602060002001604051610626929190610b29565b60405180910390a1600191505061063e565b60009150505b92915050565b60016020528060005260406000206000915090508060000154908060010160009054906101000a900460ff16905082565b60008115159050919050565b61068a81610675565b82525050565b60006020820190506106a56000830184610681565b92915050565b600080fd5b6000819050919050565b6106c3816106b0565b81146106ce57600080fd5b50565b6000813590506106e0816106ba565b92915050565b6000602082840312156106fc576106fb6106ab565b5b600061070a848285016106d1565b91505092915050565b600081519050919050565b600082825260208201905092915050565b60005b8381101561074d578082015181840152602081019050610732565b60008484015250505050565b6000601f19601f8301169050919050565b600061077582610713565b61077f818561071e565b935061078f81856020860161072f565b61079881610759565b840191505092915050565b600060208201905081810360008301526107bd818461076a565b905092915050565b6000819050919050565b6107d8816107c5565b81146107e357600080fd5b50565b6000813590506107f5816107cf565b92915050565b600060208284031215610811576108106106ab565b5b600061081f848285016107e6565b91505092915050565b6000806040838503121561083f5761083e6106ab565b5b600061084d858286016106d1565b925050602061085e858286016107e6565b9150509250929050565b600073ffffffffffffffffffffffffffffffffffffffff82169050919050565b600061089382610868565b9050919050565b6108a381610888565b81146108ae57600080fd5b50565b6000813590506108c08161089a565b92915050565b6000602082840312156108dc576108db6106ab565b5b60006108ea848285016108b1565b91505092915050565b6108fc816107c5565b82525050565b600060408201905061091760008301856108f3565b6109246020830184610681565b9392505050565b7f4e487b7100000000000000000000000000000000000000000000000000000000600052602260045260246000fd5b6000600282049050600182168061097257607f821691505b6020821081036109855761098461092b565b5b50919050565b7f4e487b7100000000000000000000000000000000000000000000000000000000600052603260045260246000fd5b6000819050919050565b6109d56109d0826106b0565b6109ba565b82525050565b6000819050919050565b6109f66109f1826107c5565b6109db565b82525050565b60008160601b9050919050565b6000610a14826109fc565b9050919050565b6000610a2682610a09565b9050919050565b610a3e610a3982610888565b610a1b565b82525050565b6000610a5082866109c4565b602082019150610a6082856109e5565b602082019150610a708284610a2d565b601482019150819050949350505050565b610a8a81610888565b82525050565b60008190508160005260206000209050919050565b60008154610ab28161095a565b610abc818661071e565b94506001821660008114610ad75760018114610aed57610b20565b60ff198316865281151560200286019350610b20565b610af685610a90565b60005b83811015610b1857815481890152600182019150602081019050610af9565b808801955050505b50505092915050565b6000604082019050610b3e6000830185610a81565b8181036020830152610b508184610aa5565b9050939250505056fea2646970667358221220a1f9255fcd6406eae102be3e960f26cf29a0f6d4506bfeccfa63a5757e6127cf64736f6c63430008120033",
  "immutableReferences": {},
  "source": "// SPDX-License-Identifier: MIT\r\npragma solidity >=0.4.22 <0.9.0;\r\n\r\ncontract RPS{\r\n\r\n    event RevealAnwer (address player, string choice);\r\n\r\n    string[] public variants = [\r\n    \"rock\",\r\n    \"paper\",\r\n    \"scissors\"\r\n    ];\r\n\r\n    struct GameData{\r\n        bytes32 commit;\r\n        bool isParticipant;\r\n    }\r\n\r\n    mapping(address => GameData) public participantsData;\r\n    address[] participants;\r\n    bool votingStopped;\r\n\r\n    modifier registrationIsPossible (){\r\n        require(participants.length != 2);\r\n        _;\r\n    }\r\n\r\n    function registration() external registrationIsPossible() returns(bool){\r\n        participantsData[msg.sender] = GameData(0, true);\r\n        participants.push(msg.sender);\r\n        return true;\r\n    }\r\n\r\n    modifier choiceAvailable () {\r\n        require(!votingStopped);\r\n        require(participantsData[msg.sender].isParticipant == true);\r\n        require(participantsData[msg.sender].commit == bytes32(0));\r\n        _;\r\n    }\r\n\r\n    modifier stopVoting() {\r\n        _;\r\n        if(participantsData[participants[0]].commit != bytes32(0) && participantsData[participants[1]].commit != bytes32(0)){\r\n            votingStopped = true;\r\n        }\r\n    }\r\n\r\n    function choose(bytes32 _hashedChoice) external choiceAvailable() stopVoting() returns(bool){ //FUNC\r\n        participantsData[msg.sender].commit = _hashedChoice;\r\n        return true;\r\n    }\r\n\r\n    function revealChoice(uint _choice, bytes32 _secret) external returns(bool){ //FUNC\r\n        if(!votingStopped){\r\n            return false;\r\n        }\r\n\r\n        bytes32 commit = keccak256(abi.encodePacked(_choice, _secret, msg.sender));\r\n\r\n        if(commit == participantsData[msg.sender].commit){\r\n            emit RevealAnwer(msg.sender, variants[_choice]);\r\n            return true;\r\n        }\r\n        else {\r\n            return false;\r\n        }\r\n    }\r\n\r\n}",
  "sourcePath": "C:\\Users\\ndumk\\OneDrive\\ \\Ethereum\\home_work\\4  --\\RPC\\contracts\\RPS.sol",
  "compiler": {
    "name": "solc",
    "version": "0.8.18+commit.87f61d96.Emscripten.clang"
  },
  "schemaVersion": "3.4.14",
  "updatedAt": "2023-06-27T21:23:46.068Z",
  "networkType": "ethereum",
  "devdoc": {
    "kind": "dev",
    "methods": {},
    "version": 1
  },
  "userdoc": {
    "kind": "user",
    "methods": {},
    "version": 1
  }
}